:1000000069EF01F00000000000EF00F000000000C8
:0A0010000000000000000000F3D71C
:10001C00016A026A800E2D18006E800E0218005CB8
:10002C0002E101502C5C11E3036A046A800E006E3D
:10003C00800E0418005C02E10350780803E3034AC5
:0C004C00042AF4D7014A022AE5D712006A
:10005800820EE16E0F0EE26EE682010E2C6E000E2D
:100068002D6ED8DF820EE16E0F0EE26EE692120060
:10007800820EE16E0F0EE26EE680820E016E0F0EAA
:10008800026E01C0E9FF02C0EAFFEECF00F00F0EDA
:10009800001601C0E1FF02C0E2FF00C0E6FF820EC9
:1000A800026E0F0E036EF00E2B14016E02C0E9FFF4
:1000B80003C0EAFFEECF00F00150001202C0E1FFDA
:1000C80003C0E2FF00C0E6FFC3DF820E016E0F0E21
:1000D800026E01C0E9FF02C0EAFFEECF00F00F0E8A
:1000E800001601C0E1FF02C0E2FF00C0E6FF820E79
:1000F800036E0F0E046E0F0E2B14026E02C001F079
:1001080001360190013601900136019001360190C7
:1001180003C0E9FF04C0EAFFEECF00F0015000126F
:1001280003C0E1FF04C0E2FF00C0E6FF91DF120058
:10013800820EE16E0F0EE26EE690820E016E0F0ED9
:10014800026E01C0E9FF02C0EAFFEECF00F00F0E19
:10015800001601C0E1FF02C0E2FF00C0E6FF820E08
:10016800026E0F0E036EF00E2B14016E02C0E9FF33
:1001780003C0EAFFEECF00F00150001202C0E1FF19
:0C01880003C0E2FF00C0E6FF63DF1200CE
:10019400820EE16E0F0EE26EE690820E016E0F0E7D
:1001A400026E01C0E9FF02C0EAFFEECF00F00F0EBD
:1001B400001601C0E1FF02C0E2FF00C0E6FF820EAC
:1001C400026E0F0E036EF00E2B14016E02C0E9FFD7
:1001D40003C0EAFFEECF00F00150001202C0E1FFBD
:1001E40003C0E2FF00C0E6FF35DF820E016E0F0E92
:1001F400026E01C0E9FF02C0EAFFEECF00F00F0E6D
:10020400001601C0E1FF02C0E2FF00C0E6FF820E5B
:10021400036E0F0E046E0F0E2B14026E02C001F05B
:1002240001360190013601900136019001360190AA
:1002340003C0E9FF04C0EAFFEECF00F00150001252
:1002440003C0E1FF04C0E2FF00C0E6FF03DF1200C9
:10025400300E2B6E6FDF300E2B6E6CDF200E2B6E8C
:1002640069DF280E2B6E94DF0C0E2B6E91DF010ECE
:100274002B6E8EDF060E2B6E8BDF800E2B6E88DFCF
:02028400120066
:100286000900F5CFE6FF0006FBE10106F9E11200E1
:10029600180E2B6E7CDF270E0C6EF50E0D6E0D2ED6
:0802A600FED70C2EFCD712005C
:1002AE0029C0E9FF2AC0EAFFEE50000A0AE029C081
:1002BE00E9FF2AC0EAFFEECF2BF0D7DE294A2A2A21
:0402CE00EFD7120054
:1002D20086EC01F0940EE16E0F0EE26EE66AB9DF73
:1002E200960E2B6E56DF150E296E000E2A6EDEDF7D
:0602F200D1DFF6D7FFD7B3
:10030C0010EE15F0140E006E010E016EF80EF66E66
:0E031C00020EF76E000EF86E43EC01F01200B8
:1002F8002053617965642053757065722D4D617264
:040308006B657400AD
:020000040030CA
:0D000100021F1EFF8381FF0FC00FE00F40A4
:00000001FF
