:040000002DEF00F0F0
:1000080000C015F09EA00BD00B0ECF6EDC0ECE6E8E
:10001800162A1650020A02E18270166A9E9015C0CE
:0400280000F01100D3
:04002C00CD80120071
:100030000900F5CFE6FF0006FBE10106F9E1120039
:100040009E900B0ECF6EDC0ECE6EF28CF28E9D80EB
:0A005000CD90CD92CD88CD8A12002C
:0E005A0034EC00F0946A8290EEDFE3DFFFD713
:1000680010EE16F0010E006E010E016E060EF66E11
:0E007800000EF76E000EF86E18EC00F012008D
:0100060000F9
:020000040030CA
:0D000100021F1EFF8381FF0FC00FE00F40A4
:00000001FF
