:0400000039EF00F0E4
:10000800F2A202D0F2928278F2A005D081A803D0A1
:10001800F290828806D0F2A004D081B802D0F29083
:100028008298F2A005D081AA03D0F290828806D0E7
:10003800F2A004D081BA02D0F2908298F2A005D042
:1000480081AC03D0F290828806D0F2A004D081BCA3
:0800580002D0F2908298110021
:10006000F2929380F28EF28CF288F286F19CF290FA
:0200700012007C
:10007200946AF5DF82988290820E0C6EDD0E0D6E10
:100082000D2EFED70C2EFCD7000000008280820EBF
:100092000C6EDD0E0D6E0D2EFED70C2EFCD7000061
:0600A2000000E9D7FFD7C2
:020000040030CA
:0D000100021F1EFF8181FF0FC00FE00F40A6
:00000001FF
