:10000000A5EF00F00000000000EF00F0000000008D
:0A0010000000000000000000F3D71C
:10001C00086A080E0C6E003408360450085ED8B01E
:0E002C0002D00826D89000360C2EF5D7120010
:10003A000A0E046E16C000F0ECDF08C000F000C023
:10004A0017F00A0E046E16C000F0E3DF00C001F0DC
:10005A000136019001360190013601900136019076
:08006A0001501710006E120096
:100072001650000A07E1800EE16E0F0EE26E17C005
:10008200E6FF1DD01650010A07E1810EE16E0F0E48
:10009200E26E17C0E6FF13D01650020A07E1820E85
:1000A200E16E0F0EE26E17C0E6FF09D01650030A8A
:1000B20006E1830EE16E0F0EE26E17C0E6FF12003C
:1000C2000900F5CFE6FF0006FBE10106F9E11200A7
:1000D2001650000A0CE1920EE16E0F0EE26EE66A15
:1000E200800EE16E0F0EE26EFF0EE66E2CD0165001
:1000F200010A0CE1930EE16E0F0EE26EE66A810ECA
:10010200E16E0F0EE26EFF0EE66E1DD01650020A71
:100112000CE1940EE16E0F0EE26EE66A820EE16E63
:100122000F0EE26EFF0EE66E0ED01650030A0BE1C2
:10013200950EE16E0F0EE26EE66A830EE16E0F0E11
:08014200E26EFF0EE66E1200F2
:10014A00156A950EE16E0F0EE26EE692830EE16E6F
:10015A000F0EE26EE692020E166EB6DF830EE96E9F
:10016A000F0EEA6EEECF00F000A21CD0156A640EE4
:10017A00155C18E215C016F05BDF00C017F0020E1E
:10018A00166E72DF020E0B6E450E0C6EA90E0D6E08
:10019A000D2EFED70C2EFCD70B2EFAD7000000002E
:0801AA00152AE5D7DBD7FFD7CA
:020000040030CA
:0D000100021F1EFF8381FF0FC00FE00F40A4
:00000001FF
